S00D00004C616220362E73726563B2
S11300000C9434000C9451000C9451000C94510045
S11300100C9451000C9451000C9451000C94510018
S11300200C9451000C9451000C9451000C94510008
S11300300C9451000C9451000C9451000C945100F8
S11300400C9451000C9451000C9488000C945100B1
S11300500C9451000C94DD000C9451000C9451004C
S11300600C9451000C94510011241FBECFEFD8E022
S1130070DEBFCDBF11E0A0E0B1E0E0EFF1E002C0EF
S113008005900D92A833B107D9F721E0A8E3B1E0B8
S113009001C01D92AA33B207E1F70E94C2000C947A
S11300A0F6000C9400008AB18E7F8AB98AB182600E
S11300B08AB91092C000E1ECF0E010828081886976
S11300C08083E2ECF0E0108280818660808387E6A2
S11300D090E09093C5008093C4000895BC0120E093
S11300E030E008C09091C00095FFFCCF4093C6005B
S11300F02F5F3F4FFB01E20FF31F40814111F2CF0D
S113010008959091C00095FFFCCF8093C600089598
S11301101F920F920FB60F9211248F938091C600F5
S1130120809339018091C00085FFFCCF8091390113
S11301308093C600809139018F7385B9809139010C
S1130140829586958695837088B98F910F900FBE9E
S11301500F901F901895ECE7F0E080818660808313
S1130160808180628083808180648083EAE7F0E01C
S113017080818860808380818760808380818068BB
S1130180808308958FE384B987B90E9453007894DB
S113019080E091E00E946E008BE191E00E946E008D
S11301A087E291E00E946E008AE00E9481008DE067
S11301B00E9481000E94AB00FFCF1F920F920FB6E6
S11301C00F9211248F93EF93FF9380917900809382
S11301D03801EAE7F0E0808180618083FF91EF914C
S11301E08F910F900FBE0F901F901895F894FFCF2A
S11301F0486F6C61204C75697320456C6967652094
S1130200756E61206F706369F36E00312E204C654A
S1130210657220506F7400322E20456E76696172CB
S10B02202061736369690000A9
S9030000FC
